{
  "contractName": "Multisig",
  "abi": [
    {
      "constant": true,
      "inputs": [
        {
          "name": "",
          "type": "address"
        }
      ],
      "name": "limits",
      "outputs": [
        {
          "name": "dailyLimit",
          "type": "uint256"
        },
        {
          "name": "spent",
          "type": "uint256"
        },
        {
          "name": "timeStart",
          "type": "uint256"
        },
        {
          "name": "set",
          "type": "bool"
        }
      ],
      "payable": false,
      "stateMutability": "view",
      "type": "function"
    },
    {
      "constant": true,
      "inputs": [
        {
          "name": "",
          "type": "address"
        }
      ],
      "name": "balances",
      "outputs": [
        {
          "name": "",
          "type": "uint256"
        }
      ],
      "payable": false,
      "stateMutability": "view",
      "type": "function"
    },
    {
      "constant": true,
      "inputs": [
        {
          "name": "",
          "type": "address"
        }
      ],
      "name": "safetyKeys",
      "outputs": [
        {
          "name": "",
          "type": "address"
        }
      ],
      "payable": false,
      "stateMutability": "view",
      "type": "function"
    },
    {
      "constant": true,
      "inputs": [
        {
          "name": "",
          "type": "address"
        }
      ],
      "name": "transactionNonces",
      "outputs": [
        {
          "name": "",
          "type": "uint256"
        }
      ],
      "payable": false,
      "stateMutability": "view",
      "type": "function"
    },
    {
      "inputs": [],
      "payable": false,
      "stateMutability": "nonpayable",
      "type": "constructor"
    },
    {
      "constant": false,
      "inputs": [
        {
          "name": "amount_",
          "type": "uint256"
        },
        {
          "name": "signature_",
          "type": "bytes"
        }
      ],
      "name": "setDailyLimit",
      "outputs": [],
      "payable": false,
      "stateMutability": "nonpayable",
      "type": "function"
    },
    {
      "constant": false,
      "inputs": [
        {
          "name": "signature_",
          "type": "bytes"
        }
      ],
      "name": "withdrawLimit",
      "outputs": [],
      "payable": false,
      "stateMutability": "nonpayable",
      "type": "function"
    },
    {
      "constant": false,
      "inputs": [],
      "name": "deposit_CIx",
      "outputs": [],
      "payable": true,
      "stateMutability": "payable",
      "type": "function"
    },
    {
      "constant": false,
      "inputs": [
        {
          "name": "safetyKey",
          "type": "address"
        }
      ],
      "name": "deposit",
      "outputs": [],
      "payable": true,
      "stateMutability": "payable",
      "type": "function"
    },
    {
      "constant": false,
      "inputs": [
        {
          "name": "to",
          "type": "address"
        },
        {
          "name": "amount",
          "type": "uint256"
        },
        {
          "name": "signature",
          "type": "bytes"
        }
      ],
      "name": "verifyTransaction_26e",
      "outputs": [],
      "payable": false,
      "stateMutability": "nonpayable",
      "type": "function"
    },
    {
      "constant": false,
      "inputs": [
        {
          "name": "from",
          "type": "address"
        },
        {
          "name": "to",
          "type": "address"
        },
        {
          "name": "amount",
          "type": "uint256"
        }
      ],
      "name": "recoverFundsToSafeAddress",
      "outputs": [],
      "payable": false,
      "stateMutability": "nonpayable",
      "type": "function"
    },
    {
      "constant": false,
      "inputs": [
        {
          "name": "from",
          "type": "address"
        },
        {
          "name": "to",
          "type": "address"
        },
        {
          "name": "amount",
          "type": "uint256"
        }
      ],
      "name": "recoverFunds",
      "outputs": [],
      "payable": false,
      "stateMutability": "nonpayable",
      "type": "function"
    }
  ],
  "bytecode": "0x608060405234801561001057600080fd5b50600080546001600160a01b03191633179055611546806100326000396000f3fe6080604052600436106100985760003560e01c8063416d22cd11610064578063416d22cd1461025e5780635d3590d5146102a1578063a2407472146102e4578063a561d81414610397578063c77db038146103ca578063f340fa011461048457610098565b806155391461009d57806176931461016757806320d7bec11461016f57806327e235e3146101ca5780633243df741461020f575b600080fd5b3480156100a957600080fd5b50610165600480360360608110156100c057600080fd5b6001600160a01b03823516916020810135918101906060810160408201356401000000008111156100f057600080fd5b82018360208201111561010257600080fd5b8035906020019184600183028401116401000000008311171561012457600080fd5b91908080601f0160208091040260200160405190810160405280939291908181526020018383808284376000920191909152509295506104aa945050505050565b005b6101656109cc565b34801561017b57600080fd5b506101a26004803603602081101561019257600080fd5b50356001600160a01b0316610a06565b6040805194855260208501939093528383019190915215156060830152519081900360800190f35b3480156101d657600080fd5b506101fd600480360360208110156101ed57600080fd5b50356001600160a01b0316610a30565b60408051918252519081900360200190f35b34801561021b57600080fd5b506102426004803603602081101561023257600080fd5b50356001600160a01b0316610a42565b604080516001600160a01b039092168252519081900360200190f35b34801561026a57600080fd5b506101656004803603606081101561028157600080fd5b506001600160a01b03813581169160208101359091169060400135610a5d565b3480156102ad57600080fd5b50610165600480360360608110156102c457600080fd5b506001600160a01b03813581169160208101359091169060400135610c08565b3480156102f057600080fd5b506101656004803603602081101561030757600080fd5b81019060208101813564010000000081111561032257600080fd5b82018360208201111561033457600080fd5b8035906020019184600183028401116401000000008311171561035657600080fd5b91908080601f016020809104026020016040519081016040528093929190818152602001838380828437600092019190915250929550610ccd945050505050565b3480156103a357600080fd5b506101fd600480360360208110156103ba57600080fd5b50356001600160a01b0316610f9e565b3480156103d657600080fd5b50610165600480360360408110156103ed57600080fd5b8135919081019060408101602082013564010000000081111561040f57600080fd5b82018360208201111561042157600080fd5b8035906020019184600183028401116401000000008311171561044357600080fd5b91908080601f016020809104026020016040519081016040528093929190818152602001838380828437600092019190915250929550610fb0945050505050565b6101656004803603602081101561049a57600080fd5b50356001600160a01b031661128d565b336000818152600160205260409020548311156105095760408051600160e51b62461bcd0281526020600482015260126024820152600160701b714e6f7420656e6f7567682062616c616e636502604482015290519081900360640190fd5b6001600160a01b038082166000818152600260209081526040808320548151606095861b81850152958a1690941b6034860152604885018890526068808601949094528051808603909401845260888501808252845194830194909420600160e01b6319045a2502909452608c850184815260ac8601918252875160cc8701528751949573__ECDSA_________________________________956319045a259588958b959360ec0192908601918190849084905b838110156105d55781810151838201526020016105bd565b50505050905090810190601f1680156106025780820380516001836020036101000a031916815260200191505b50935050505060206040518083038186803b15801561062057600080fd5b505af4158015610634573d6000803e3d6000fd5b505050506040513d602081101561064a57600080fd5b50516000546001600160a01b039081169116148061076c575060408051600160e01b6319045a25028152600481018381526024820192835285516044830152855173__ECDSA_________________________________936319045a25938693899390929160640190602085019080838360005b838110156106d55781810151838201526020016106bd565b50505050905090810190601f1680156107025780820380516001836020036101000a031916815260200191505b50935050505060206040518083038186803b15801561072057600080fd5b505af4158015610734573d6000803e3d6000fd5b505050506040513d602081101561074a57600080fd5b50516001600160a01b0383811660009081526004602052604090205481169116145b6107b95760408051600160e51b62461bcd0281526020600482015260136024820152600160681b72496e636f7272656374207369676e617475726502604482015290519081900360640190fd5b6001600160a01b03821660009081526005602052604090206003015460ff16151560011415610935576001600160a01b0382166000908152600560205260409020600201546201518001421115610888576001600160a01b03821660009081526005602052604090205484111561086457604051600160e51b62461bcd0281526004018080602001828103825260268152602001806114906026913960400191505060405180910390fd5b6001600160a01b0382166000908152600560205260409020426002909101556108f2565b6001600160a01b038216600090815260056020526040902080546001909101546108b29086611354565b11156108f257604051600160e51b62461bcd0281526004018080602001828103825260268152602001806114906026913960400191505060405180910390fd5b6001600160a01b0382166000908152600560205260409020600101546109189085611354565b6001600160a01b0383166000908152600560205260409020600101555b6001600160a01b03821660009081526001602052604090205461095890856113b8565b6001600160a01b03808416600081815260016020818152604080842096909655338352600381528583204290559282526002909252838120805490920190915591519087169186156108fc02918791818181858888f193505050501580156109c4573d6000803e3d6000fd5b505050505050565b336000908152600160205260409020546109e69034611354565b336000908152600160209081526040808320939093556003905220429055565b60056020526000908152604090208054600182015460028301546003909301549192909160ff1684565b60016020526000908152604090205481565b6004602052600090815260409020546001600160a01b031681565b6001600160a01b0383166000908152600360205260409020546078014211610ab957604051600160e51b62461bcd0281526004018080602001828103825260348152602001806114e76034913960400191505060405180910390fd5b6001600160a01b038316600090815260016020526040902054811115610b215760408051600160e51b62461bcd0281526020600482015260126024820152600160701b714e6f7420656e6f7567682062616c616e636502604482015290519081900360640190fd5b6001600160a01b03838116600090815260046020526040902054811690831614610b955760408051600160e51b62461bcd02815260206004820152601660248201527f41646472657373206973206e6f7420636f727265637400000000000000000000604482015290519081900360640190fd5b6001600160a01b038316600090815260016020526040902054610bb890826113b8565b6001600160a01b038085166000908152600160205260408082209390935591519084169183156108fc02918491818181858888f19350505050158015610c02573d6000803e3d6000fd5b50505050565b6001600160a01b03831660009081526003602052604090205461012c014211610c6557604051600160e51b62461bcd0281526004018080602001828103825260318152602001806114b66031913960400191505060405180910390fd5b6001600160a01b038316600090815260016020526040902054811115610b955760408051600160e51b62461bcd0281526020600482015260126024820152600160701b714e6f7420656e6f7567682062616c616e636502604482015290519081900360640190fd5b33600081815260026020908152604080832054815160609590951b858401526034808601919091528151808603909101815260548501808352815191840191909120600160e01b6319045a25029091526058850181815260788601928352865160988701528651919573__ECDSA_________________________________956319045a259588958a95909360b80192918601918190849084905b83811015610d7f578181015183820152602001610d67565b50505050905090810190601f168015610dac5780820380516001836020036101000a031916815260200191505b50935050505060206040518083038186803b158015610dca57600080fd5b505af4158015610dde573d6000803e3d6000fd5b505050506040513d6020811015610df457600080fd5b50516000546001600160a01b0390811691161480610f15575060408051600160e01b6319045a25028152600481018381526024820192835284516044830152845173__ECDSA_________________________________936319045a25938693889390929160640190602085019080838360005b83811015610e7f578181015183820152602001610e67565b50505050905090810190601f168015610eac5780820380516001836020036101000a031916815260200191505b50935050505060206040518083038186803b158015610eca57600080fd5b505af4158015610ede573d6000803e3d6000fd5b505050506040513d6020811015610ef457600080fd5b5051336000908152600460205260409020546001600160a01b039081169116145b610f625760408051600160e51b62461bcd0281526020600482015260136024820152600160681b72496e636f7272656374207369676e617475726502604482015290519081900360640190fd5b50503360009081526005602090815260408083208381556003908101805460ff1916905560028352818420805460010190559091529020429055565b60026020526000908152604090205481565b33600081815260026020908152604080832054815160609590951b85840152603485018790526054808601919091528151808603909101815260748501808352815191840191909120600160e01b6319045a25029091526078850181815260988601928352865160b88701528651919573__ECDSA_________________________________956319045a259588958a95909360d80192918601918190849084905b83811015611069578181015183820152602001611051565b50505050905090810190601f1680156110965780820380516001836020036101000a031916815260200191505b50935050505060206040518083038186803b1580156110b457600080fd5b505af41580156110c8573d6000803e3d6000fd5b505050506040513d60208110156110de57600080fd5b50516000546001600160a01b03908116911614806111ff575060408051600160e01b6319045a25028152600481018381526024820192835284516044830152845173__ECDSA_________________________________936319045a25938693889390929160640190602085019080838360005b83811015611169578181015183820152602001611151565b50505050905090810190601f1680156111965780820380516001836020036101000a031916815260200191505b50935050505060206040518083038186803b1580156111b457600080fd5b505af41580156111c8573d6000803e3d6000fd5b505050506040513d60208110156111de57600080fd5b5051336000908152600460205260409020546001600160a01b039081169116145b61124c5760408051600160e51b62461bcd0281526020600482015260136024820152600160681b72496e636f7272656374207369676e617475726502604482015290519081900360640190fd5b50503360009081526005602090815260408083209384556003938401805460ff19166001908117909155600283528184208054909101905592905220429055565b33600090815260016020526040902054156112f25760408051600160e51b62461bcd02815260206004820152601660248201527f42616c616e63652068617320746f206265207a65726f00000000000000000000604482015290519081900360640190fd5b3360009081526001602052604090205461130c9034611354565b336000908152600160209081526040808320939093556004815282822080546001600160a01b0319166001600160a01b03959095169490941790935560039092529020429055565b6000828201838110156113b15760408051600160e51b62461bcd02815260206004820152601b60248201527f536166654d6174683a206164646974696f6e206f766572666c6f770000000000604482015290519081900360640190fd5b9392505050565b60006113b183836040518060400160405280601e81526020017f536166654d6174683a207375627472616374696f6e206f766572666c6f7700008152506000818484111561148757604051600160e51b62461bcd0281526004018080602001828103825283818151815260200191508051906020019080838360005b8381101561144c578181015183820152602001611434565b50505050905090810190601f1680156114795780820380516001836020036101000a031916815260200191505b509250505060405180910390fd5b50505090039056fe5472616e73616374696f6e20616d6f756e742065786365656473206461696c79206c696d69744e6f7420656e6f7567682074696d6520656c617073656420746f207265636f76657220746f20616e7920616464726573734e6f7420656e6f7567682074696d6520656c617073656420746f207265636f76657220746f206261636b75702061646472657373a165627a7a723058205ec348aabc4526a5d6b853de708e93187a0287279dd988708c6f6dc2734e79db0029",
  "source": "pragma solidity ^0.5.0;\n\nimport './ECDSA.sol';\nimport './SafeMath.sol';\n// Verifying two signatures in one transcaction in this smart contract\n\ncontract Multisig {\n    \n    address private owner; \n    \n    struct TimeLimits {\n        uint256 dailyLimit;\n        uint256 spent;\n        uint256 timeStart;\n        bool set;\n    }\n    \n    mapping(address => uint256) public balances;\n    mapping(address => uint256) public transactionNonces;\n    mapping(address => uint256) private lastAppearance; \n    mapping(address => address) public safetyKeys; \n    mapping(address => TimeLimits) public limits; \n    \n    constructor() public {\n        owner = msg.sender;\n    }\n    \n    function setDailyLimit(uint256 amount_, bytes memory signature_) public {\n        bytes32 message = keccak256(abi.encodePacked(msg.sender, amount_, transactionNonces[msg.sender]));\n        require(owner == ECDSA.recover(message, signature_) || safetyKeys[msg.sender] == ECDSA.recover(message, signature_), \"Incorrect signature\");\n        limits[msg.sender].dailyLimit = amount_;\n        limits[msg.sender].set = true;\n        transactionNonces[msg.sender]++;\n        lastAppearance[msg.sender] = block.timestamp; \n    }\n    \n    function withdrawLimit(bytes memory signature_) public {\n        bytes32 message = keccak256(abi.encodePacked(msg.sender, transactionNonces[msg.sender]));\n        require(owner == ECDSA.recover(message, signature_) || safetyKeys[msg.sender] == ECDSA.recover(message, signature_), \"Incorrect signature\");\n        limits[msg.sender].dailyLimit = 0;\n        limits[msg.sender].set = false;\n        transactionNonces[msg.sender]++;\n        lastAppearance[msg.sender] = block.timestamp; \n    }\n    \n    function deposit_CIx() \n        public \n        payable {\n            balances[msg.sender] = SafeMath.add(balances[msg.sender], msg.value);\n            lastAppearance[msg.sender] = block.timestamp; // Updating last time an action was taken by the user \n        }\n        \n    function deposit(address safetyKey) \n        public\n        payable {\n            require(balances[msg.sender] == 0, \"Balance has to be zero\"); // If there are funds in the account, safetyKey should not be overriden\n            balances[msg.sender] = SafeMath.add(balances[msg.sender], msg.value);\n            safetyKeys[msg.sender] = safetyKey;\n            lastAppearance[msg.sender] = block.timestamp; // Updating last time an action was taken by the user \n    }    \n    \n    function verifyTransaction_26e\n        (address payable to, uint256 amount, bytes memory signature) \n        public \n        {\n            address from = msg.sender;\n            require(balances[from] >= amount, \"Not enough balance\"); \n            bytes32 message = keccak256(abi.encodePacked(from, to, amount, transactionNonces[from]));\n            require(owner == ECDSA.recover(message, signature) || safetyKeys[from] == ECDSA.recover(message, signature), \"Incorrect signature\"); // Check if the transaction was signed by the owner or safe key\n            if (limits[from].set == true) {\n                if (block.timestamp > limits[from].timeStart + 86400) {\n                    require(amount <= limits[from].dailyLimit, \"Transaction amount exceeds daily limit\");\n                    limits[from].timeStart = block.timestamp;\n                } else {\n                    require(SafeMath.add(limits[from].spent, amount) <= limits[from].dailyLimit, \"Transaction amount exceeds daily limit\");\n                }\n                limits[from].spent = SafeMath.add(limits[from].spent, amount);\n            }\n            balances[from] = SafeMath.sub(balances[from] ,amount);\n            lastAppearance[msg.sender] = block.timestamp; // Updating last time an action was taken by the user \n            transactionNonces[from]++;\n            to.transfer(amount);\n        }\n        \n    function recoverFundsToSafeAddress(\n        address from, \n        address payable to, \n        uint256 amount\n        )\n        public \n        {\n            require(block.timestamp > lastAppearance[from] + 120, \"Not enough time elapsed to recover to backup address\"); //Testing that after two minues funds can be sent to safe address\n            require(balances[from] >= amount, \"Not enough balance\");\n            require(safetyKeys[from] == to, \"Address is not correct\");\n            balances[from] = SafeMath.sub(balances[from] ,amount);\n            to.transfer(amount);\n        }\n    \n    function recoverFunds(\n        address from, \n        address payable to, \n        uint256 amount\n        )\n        public\n        {\n            require(block.timestamp > lastAppearance[from] + 300, \"Not enough time elapsed to recover to any address\"); //Testing that after five minutes funds can be sent to anyone\n            require(balances[from] >= amount, \"Not enough balance\");\n            balances[from] = SafeMath.sub(balances[from] ,amount);\n            to.transfer(amount);\n        }\n}\n\n\n/* Old\npragma solidity ^0.5.0;\n\nimport './ECDSA.sol';\nimport './SafeMath.sol';\n// Verifying two signatures in one transcaction in this smart contract\n\ncontract Multisig {\n    \n    address private owner; \n    \n    struct TimeLimits {\n        uint256 dailyLimit;\n        uint256 spent;\n        uint256 timeStart;\n        bool set;\n    }\n    \n    mapping(address => uint256) public balances;\n    mapping(address => uint256) public transactionNonces;\n    mapping(address => uint256) private lastAppearance; \n    mapping(address => address) public safetyKeys; \n    mapping(address => TimeLimits) private limits; \n    \n    constructor() public {\n        owner = msg.sender;\n    }\n    \n    function setDailyLimit(uint256 amount_, bytes memory signature_) public {\n        bytes32 message = keccak256(abi.encodePacked(msg.sender, amount_, transactionNonces[msg.sender]));\n        require(owner == ECDSA.recover(message, signature_) || safetyKeys[msg.sender] == ECDSA.recover(message, signature_));\n        limits[msg.sender].dailyLimit = SafeMath.add(limits[msg.sender].dailyLimit, amount_);\n        limits[msg.sender].set = true;\n        transactionNonces[msg.sender]++;\n        lastAppearance[msg.sender] = block.timestamp; \n    }\n    \n    function withdrawLimit(bytes memory signature_) public {\n        bytes32 message = keccak256(abi.encodePacked(msg.sender, transactionNonces[msg.sender]));\n        require(owner == ECDSA.recover(message, signature_) || safetyKeys[msg.sender] == ECDSA.recover(message, signature_));\n        limits[msg.sender].set = false;\n        transactionNonces[msg.sender]++;\n        lastAppearance[msg.sender] = block.timestamp; \n    }\n    \n    function deposit_CIx() \n        public \n        payable {\n            balances[msg.sender] = SafeMath.add(balances[msg.sender], msg.value);\n            lastAppearance[msg.sender] = block.timestamp; // Updating last time an action was taken by the user \n        }\n        \n    function deposit(address safetyKey) \n        public\n        payable {\n            require(balances[msg.sender] == 0); // If there are funds in the account, safetyKey should not be overriden\n            balances[msg.sender] = SafeMath.add(balances[msg.sender], msg.value);\n            safetyKeys[msg.sender] = safetyKey;\n            lastAppearance[msg.sender] = block.timestamp; // Updating last time an action was taken by the user \n    }    \n    \n    function verifyTransaction_26e\n        (address payable to, uint256 amount, bytes memory signature) \n        public \n        {\n            address from = msg.sender;\n            require(balances[from] >= amount); \n            bytes32 message = keccak256(abi.encodePacked(from, to, amount, transactionNonces[from]));\n            require(owner == ECDSA.recover(message, signature) || safetyKeys[from] == ECDSA.recover(message, signature)); // Check if the transaction was signed by the owner or safe key\n            if (limits[from].set == true) {\n                if (block.timestamp > limits[from].timeStart + 86400) {\n                    require(amount <= limits[from].dailyLimit, \"Transaction amount exceeds daily limit\");\n                    limits[from].timeStart = block.timestamp;\n                } else {\n                    require(SafeMath.add(limits[from].spent, amount) <= limits[from].dailyLimit);\n                }\n                limits[from].spent = SafeMath.add(limits[from].spent, amount);\n            }\n            to.transfer(amount);\n            balances[from] = SafeMath.sub(balances[from] ,amount);\n            lastAppearance[msg.sender] = block.timestamp; // Updating last time an action was taken by the user \n            transactionNonces[from]++;\n        }\n        \n    function recoverFundsToSafeAddress(\n        address from, \n        address payable to, \n        uint256 amount\n        )\n        public \n        {\n            require(block.timestamp > lastAppearance[from] + 120, \"Not enough time elapsed to recover to backup address\"); //Testing that after two minues funds can be sent to safe address\n            require(balances[from] >= amount);\n            require(safetyKeys[from] == to);\n            to.transfer(amount);\n            balances[from] = SafeMath.sub(balances[from] ,amount);\n        }\n    \n    function recoverFunds(\n        address from, \n        address payable to, \n        uint256 amount\n        )\n        public\n        {\n            require(block.timestamp > lastAppearance[from] + 300, \"Not enough time elapsed to recover to any address\"); //Testing that after five minutes funds can be sent to anyone\n            require(balances[from] >= amount);\n            to.transfer(amount);\n            balances[from] = SafeMath.sub(balances[from] ,amount);\n        }\n}\n*/\n",
  "sourcePath": "/Users/Raid/Mastering_Ethereum/DevelopingFirstDapp/Safety Wallet/SafeWalletFix/contracts/contracts/Multisig.sol",
  "compiler": {
    "name": "solc",
    "version": "0.5.8+commit.23d335f2.Emscripten.clang"
  },
  "schemaVersion": "3.0.11",
  "updatedAt": "2019-10-17T11:57:40.294Z",
  "devdoc": {
    "methods": {}
  },
  "userdoc": {
    "methods": {}
  }
}