{
  "contractName": "MultisigERC20",
  "abi": [
    {
      "constant": true,
      "inputs": [],
      "name": "ERC20Interface",
      "outputs": [
        {
          "name": "",
          "type": "address"
        }
      ],
      "payable": false,
      "stateMutability": "view",
      "type": "function"
    },
    {
      "constant": true,
      "inputs": [
        {
          "name": "",
          "type": "address"
        },
        {
          "name": "",
          "type": "bytes32"
        }
      ],
      "name": "safetyKeys",
      "outputs": [
        {
          "name": "",
          "type": "address"
        }
      ],
      "payable": false,
      "stateMutability": "view",
      "type": "function"
    },
    {
      "constant": true,
      "inputs": [
        {
          "name": "",
          "type": "bytes32"
        }
      ],
      "name": "tokens",
      "outputs": [
        {
          "name": "",
          "type": "address"
        }
      ],
      "payable": false,
      "stateMutability": "view",
      "type": "function"
    },
    {
      "constant": true,
      "inputs": [
        {
          "name": "",
          "type": "address"
        },
        {
          "name": "",
          "type": "bytes32"
        }
      ],
      "name": "limits",
      "outputs": [
        {
          "name": "dailyLimit",
          "type": "uint256"
        },
        {
          "name": "spent",
          "type": "uint256"
        },
        {
          "name": "timeStart",
          "type": "uint256"
        },
        {
          "name": "set",
          "type": "bool"
        }
      ],
      "payable": false,
      "stateMutability": "view",
      "type": "function"
    },
    {
      "constant": true,
      "inputs": [
        {
          "name": "",
          "type": "address"
        }
      ],
      "name": "transactionNonces",
      "outputs": [
        {
          "name": "",
          "type": "uint256"
        }
      ],
      "payable": false,
      "stateMutability": "view",
      "type": "function"
    },
    {
      "constant": true,
      "inputs": [
        {
          "name": "",
          "type": "address"
        },
        {
          "name": "",
          "type": "bytes32"
        }
      ],
      "name": "tokenBalances",
      "outputs": [
        {
          "name": "",
          "type": "uint256"
        }
      ],
      "payable": false,
      "stateMutability": "view",
      "type": "function"
    },
    {
      "inputs": [],
      "payable": false,
      "stateMutability": "nonpayable",
      "type": "constructor"
    },
    {
      "constant": false,
      "inputs": [
        {
          "name": "symbol_",
          "type": "bytes32"
        },
        {
          "name": "address_",
          "type": "address"
        }
      ],
      "name": "addNewToken",
      "outputs": [
        {
          "name": "",
          "type": "bool"
        }
      ],
      "payable": false,
      "stateMutability": "nonpayable",
      "type": "function"
    },
    {
      "constant": false,
      "inputs": [
        {
          "name": "symbol_",
          "type": "bytes32"
        }
      ],
      "name": "removeToken",
      "outputs": [
        {
          "name": "",
          "type": "bool"
        }
      ],
      "payable": false,
      "stateMutability": "nonpayable",
      "type": "function"
    },
    {
      "constant": false,
      "inputs": [
        {
          "name": "symbol_",
          "type": "bytes32"
        },
        {
          "name": "amount_",
          "type": "uint256"
        },
        {
          "name": "signature_",
          "type": "bytes"
        }
      ],
      "name": "setDailyLimit",
      "outputs": [],
      "payable": false,
      "stateMutability": "nonpayable",
      "type": "function"
    },
    {
      "constant": false,
      "inputs": [
        {
          "name": "symbol_",
          "type": "bytes32"
        },
        {
          "name": "signature_",
          "type": "bytes"
        }
      ],
      "name": "withdrawLimit",
      "outputs": [],
      "payable": false,
      "stateMutability": "nonpayable",
      "type": "function"
    },
    {
      "constant": false,
      "inputs": [
        {
          "name": "symbol_",
          "type": "bytes32"
        },
        {
          "name": "amount_",
          "type": "uint256"
        }
      ],
      "name": "depositFunds_xur",
      "outputs": [
        {
          "name": "",
          "type": "bool"
        }
      ],
      "payable": false,
      "stateMutability": "nonpayable",
      "type": "function"
    },
    {
      "constant": false,
      "inputs": [
        {
          "name": "safetyKey_",
          "type": "address"
        },
        {
          "name": "symbol_",
          "type": "bytes32"
        },
        {
          "name": "amount_",
          "type": "uint256"
        }
      ],
      "name": "depositFunds",
      "outputs": [
        {
          "name": "",
          "type": "bool"
        }
      ],
      "payable": false,
      "stateMutability": "nonpayable",
      "type": "function"
    },
    {
      "constant": false,
      "inputs": [
        {
          "name": "to",
          "type": "address"
        },
        {
          "name": "amount",
          "type": "uint256"
        },
        {
          "name": "signature",
          "type": "bytes"
        },
        {
          "name": "symbol_",
          "type": "bytes32"
        }
      ],
      "name": "verifyTransaction__ef",
      "outputs": [],
      "payable": false,
      "stateMutability": "nonpayable",
      "type": "function"
    },
    {
      "constant": false,
      "inputs": [
        {
          "name": "from_",
          "type": "address"
        },
        {
          "name": "to_",
          "type": "address"
        },
        {
          "name": "symbol_",
          "type": "bytes32"
        },
        {
          "name": "amount_",
          "type": "uint256"
        }
      ],
      "name": "recoverFundsToSafeAddress",
      "outputs": [],
      "payable": false,
      "stateMutability": "nonpayable",
      "type": "function"
    },
    {
      "constant": false,
      "inputs": [
        {
          "name": "from_",
          "type": "address"
        },
        {
          "name": "to_",
          "type": "address"
        },
        {
          "name": "symbol_",
          "type": "bytes32"
        },
        {
          "name": "amount_",
          "type": "uint256"
        }
      ],
      "name": "recoverFunds",
      "outputs": [],
      "payable": false,
      "stateMutability": "nonpayable",
      "type": "function"
    }
  ],
  "bytecode": "0x608060405234801561001057600080fd5b50600080546001600160a01b03191633179055611d66806100326000396000f3fe608060405234801561001057600080fd5b50600436106100f15760003560e01c8063904194a311610097578063bdfb0d8611610066578063bdfb0d861461039c578063d520d23c1461044e578063e01575d31461047a578063faa29c51146104b6576100f1565b8063904194a3146102c7578063974c3e75146102e4578063a561d81414610338578063b082443b14610370576100f1565b8063224e7462116100d3578063224e746214610210578063256e8d5e1461022d578063366ada08146102595780637947b3771461028b576100f1565b8061216a146100f65780613180146101b55780631bbc4b83146101ec575b600080fd5b6101b36004803603608081101561010c57600080fd5b6001600160a01b038235169160208101359181019060608101604082013564010000000081111561013c57600080fd5b82018360208201111561014e57600080fd5b8035906020019184600183028401116401000000008311171561017057600080fd5b91908080601f0160208091040260200160405190810160405280939291908181526020018383808284376000920191909152509295505091359250610563915050565b005b6101d8600480360360408110156101cb57600080fd5b5080359060200135610b76565b604080519115158252519081900360200190f35b6101f4610dc2565b604080516001600160a01b039092168252519081900360200190f35b6101d86004803603602081101561022657600080fd5b5035610dd1565b6101f46004803603604081101561024357600080fd5b506001600160a01b038135169060200135610e77565b6101d86004803603606081101561026f57600080fd5b506001600160a01b038135169060208101359060400135610e9d565b6101b3600480360360808110156102a157600080fd5b506001600160a01b03813581169160208101359091169060408101359060600135611183565b6101f4600480360360208110156102dd57600080fd5b50356113c7565b610310600480360360408110156102fa57600080fd5b506001600160a01b0381351690602001356113e2565b6040805194855260208501939093528383019190915215156060830152519081900360800190f35b61035e6004803603602081101561034e57600080fd5b50356001600160a01b0316611417565b60408051918252519081900360200190f35b6101d86004803603604081101561038657600080fd5b50803590602001356001600160a01b0316611429565b6101b3600480360360608110156103b257600080fd5b8135916020810135918101906060810160408201356401000000008111156103d957600080fd5b8201836020820111156103eb57600080fd5b8035906020019184600183028401116401000000008311171561040d57600080fd5b91908080601f016020809104026020016040519081016040528093929190818152602001838380828437600092019190915250929550611473945050505050565b61035e6004803603604081101561046457600080fd5b506001600160a01b038135169060200135611771565b6101b36004803603608081101561049057600080fd5b506001600160a01b0381358116916020810135909116906040810135906060013561178e565b6101b3600480360360408110156104cc57600080fd5b813591908101906040810160208201356401000000008111156104ee57600080fd5b82018360208201111561050057600080fd5b8035906020019184600183028401116401000000008311171561052257600080fd5b91908080601f01602080910402602001604051908101604052809392919081815260200183838082843760009201919091525092955061185e945050505050565b3360008181526003602090815260408083208584529091529020548411156105cd5760408051600160e51b62461bcd0281526020600482015260126024820152600160701b714e6f7420656e6f7567682062616c616e636502604482015290519081900360640190fd5b6001600160a01b038082166000818152600460209081526040808320548151606095861b81850152958b1690941b603486015260488501899052606885019390935260888085018790528351808603909101815260a88501808552815191830191909120600160e01b6319045a250290915260ac850181815260cc8601948552885160ec8701528851919573__ECDSA_________________________________956319045a259588958c95929361010c0192908601918190849084905b838110156106a257818101518382015260200161068a565b50505050905090810190601f1680156106cf5780820380516001836020036101000a031916815260200191505b50935050505060206040518083038186803b1580156106ed57600080fd5b505af4158015610701573d6000803e3d6000fd5b505050506040513d602081101561071757600080fd5b50516000546001600160a01b0390811691161480610844575060408051600160e01b6319045a25028152600481018381526024820192835286516044830152865173__ECDSA_________________________________936319045a259386938a9390929160640190602085019080838360005b838110156107a257818101518382015260200161078a565b50505050905090810190601f1680156107cf5780820380516001836020036101000a031916815260200191505b50935050505060206040518083038186803b1580156107ed57600080fd5b505af4158015610801573d6000803e3d6000fd5b505050506040513d602081101561081757600080fd5b50516001600160a01b03838116600090815260056020908152604080832088845290915290205481169116145b6108915760408051600160e51b62461bcd0281526020600482015260136024820152600160681b72496e636f7272656374207369676e617475726502604482015290519081900360640190fd5b6001600160a01b038216600090815260066020908152604080832086845290915290206003015460ff16151560011415610a5a576001600160a01b0382166000908152600660209081526040808320868452909152902060020154620151800142111561098c576001600160a01b038216600090815260066020908152604080832086845290915290205485111561095d57604051600160e51b62461bcd028152600401808060200182810382526026815260200180611c886026913960400191505060405180910390fd5b6001600160a01b0382166000908152600660209081526040808320868452909152902042600290910155610a01565b6001600160a01b0382166000908152600660209081526040808320868452909152902080546001909101546109c19087611b4c565b1115610a0157604051600160e51b62461bcd028152600401808060200182810382526026815260200180611c886026913960400191505060405180910390fd5b6001600160a01b0382166000908152600660209081526040808320868452909152902060010154610a329086611b4c565b6001600160a01b03831660009081526006602090815260408083208784529091529020600101555b600083815260026020908152604080832054600180546001600160a01b0319166001600160a01b0392831690811790915590861684526003835281842087855290925290912054610aab9087611bb0565b6001600160a01b0380851660008181526003602090815260408083208a845282528083209590955533825260078152848220429055918152600480835284822080546001908101909155548551600160e01b63a9059cbb0281528d861692810192909252602482018c90529451949093169363a9059cbb9360448082019493918390030190829087803b158015610b4157600080fd5b505af1158015610b55573d6000803e3d6000fd5b505050506040513d6020811015610b6b57600080fd5b505050505050505050565b6000828152600260205260408120546001600160a01b0316610be25760408051600160e51b62461bcd02815260206004820152601460248201527f546f6b656e206e6f742072656769737465726564000000000000000000000000604482015290519081900360640190fd5b60008381526002602090815260409182902054600180546001600160a01b0319166001600160a01b03928316908117918290558451600160e11b636eb1769f02815233600482018190523060248301529551919594929093169263dd62ed3e926044808301939192829003018186803b158015610c5e57600080fd5b505afa158015610c72573d6000803e3d6000fd5b505050506040513d6020811015610c8857600080fd5b5051841115610ccb57604051600160e51b62461bcd028152600401808060200182810382526028815260200180611d136028913960400191505060405180910390fd5b60015460408051600160e01b6323b872dd0281526001600160a01b03848116600483015230602483015260448201889052915191909216916323b872dd9160648083019260209291908290030181600087803b158015610d2a57600080fd5b505af1158015610d3e573d6000803e3d6000fd5b505050506040513d6020811015610d5457600080fd5b50506001600160a01b0381166000908152600360209081526040808320888452909152902054610d849085611b4c565b6001600160a01b0390911660009081526003602090815260408083208884528252808320939093553382526007905220429055506001905092915050565b6001546001600160a01b031681565b600080546001600160a01b03163314610de957600080fd5b6000828152600260205260409020546001600160a01b0316610e555760408051600160e51b62461bcd02815260206004820152601460248201527f43616e27742072656d6f7665203020746f6b656e000000000000000000000000604482015290519081900360640190fd5b50600090815260026020526040902080546001600160a01b0319169055600190565b60056020908152600092835260408084209091529082529020546001600160a01b031681565b33600090815260036020908152604080832085845290915281205415610f0d5760408051600160e51b62461bcd02815260206004820152601360248201527f42616c616e6365206973206e6f74207a65726f00000000000000000000000000604482015290519081900360640190fd5b6000838152600260205260409020546001600160a01b0316610f795760408051600160e51b62461bcd02815260206004820152601460248201527f546f6b656e206e6f742072656769737465726564000000000000000000000000604482015290519081900360640190fd5b60008381526002602090815260409182902054600180546001600160a01b0319166001600160a01b03928316908117918290558451600160e11b636eb1769f02815233600482018190523060248301529551919594929093169263dd62ed3e926044808301939192829003018186803b158015610ff557600080fd5b505afa158015611009573d6000803e3d6000fd5b505050506040513d602081101561101f57600080fd5b505184111561106257604051600160e51b62461bcd028152600401808060200182810382526028815260200180611d136028913960400191505060405180910390fd5b60015460408051600160e01b6323b872dd0281526001600160a01b03848116600483015230602483015260448201889052915191909216916323b872dd9160648083019260209291908290030181600087803b1580156110c157600080fd5b505af11580156110d5573d6000803e3d6000fd5b505050506040513d60208110156110eb57600080fd5b50506001600160a01b038116600090815260036020908152604080832088845290915290205461111b9085611b4c565b6001600160a01b039182166000908152600360209081526040808320898452825280832093909355338083526005825283832098835297815282822080546001600160a01b031916999094169890981790925594815260079095525050509020429055600190565b6001600160a01b03841660009081526007602052604090205460780142116111df57604051600160e51b62461bcd028152600401808060200182810382526034815260200180611cdf6034913960400191505060405180910390fd5b6001600160a01b03841660009081526003602090815260408083208584529091529020548111156112525760408051600160e51b62461bcd0281526020600482015260126024820152600160701b714e6f7420656e6f7567682062616c616e636502604482015290519081900360640190fd5b6001600160a01b0384811660009081526005602090815260408083208684529091529020548116908416146112d15760408051600160e51b62461bcd02815260206004820152601660248201527f41646472657373206973206e6f7420636f727265637400000000000000000000604482015290519081900360640190fd5b600082815260026020908152604080832054600180546001600160a01b0319166001600160a01b03928316908117909155908816845260038352818420868552909252909120546113229083611bb0565b6001600160a01b0380871660009081526003602090815260408083208884528252808320949094556001548451600160e01b63a9059cbb028152898516600482015260248101889052945193169363a9059cbb9360448083019491928390030190829087803b15801561139457600080fd5b505af11580156113a8573d6000803e3d6000fd5b505050506040513d60208110156113be57600080fd5b50505050505050565b6002602052600090815260409020546001600160a01b031681565b600660209081526000928352604080842090915290825290208054600182015460028301546003909301549192909160ff1684565b60046020526000908152604090205481565b600080546001600160a01b0316331461144157600080fd5b50600082815260026020526040902080546001600160a01b0383166001600160a01b0319909116179055600192915050565b33600081815260046020908152604080832054815160609590951b8584015260348501889052605485018790526074808601919091528151808603909101815260948501808352815191840191909120600160e01b6319045a25029091526098850181815260b88601928352865160d88701528651919573__ECDSA_________________________________956319045a259588958a95909360f80192918601918190849084905b8381101561153357818101518382015260200161151b565b50505050905090810190601f1680156115605780820380516001836020036101000a031916815260200191505b50935050505060206040518083038186803b15801561157e57600080fd5b505af4158015611592573d6000803e3d6000fd5b505050506040513d60208110156115a857600080fd5b50516000546001600160a01b03908116911614806116d4575060408051600160e01b6319045a25028152600481018381526024820192835284516044830152845173__ECDSA_________________________________936319045a25938693889390929160640190602085019080838360005b8381101561163357818101518382015260200161161b565b50505050905090810190601f1680156116605780820380516001836020036101000a031916815260200191505b50935050505060206040518083038186803b15801561167e57600080fd5b505af4158015611692573d6000803e3d6000fd5b505050506040513d60208110156116a857600080fd5b50513360009081526005602090815260408083208884529091529020546001600160a01b039081169116145b6117215760408051600160e51b62461bcd0281526020600482015260136024820152600160681b72496e636f7272656374207369676e617475726502604482015290519081900360640190fd5b50503360008181526006602090815260408083209583529481528482209384556003909301805460ff19166001908117909155918152600483528381208054909201909155600790915220429055565b600360209081526000928352604080842090915290825290205481565b6001600160a01b03841660009081526007602052604090205461012c0142116117eb57604051600160e51b62461bcd028152600401808060200182810382526031815260200180611cae6031913960400191505060405180910390fd5b6001600160a01b03841660009081526003602090815260408083208584529091529020548111156112d15760408051600160e51b62461bcd0281526020600482015260126024820152600160701b714e6f7420656e6f7567682062616c616e636502604482015290519081900360640190fd5b33600081815260046020908152604080832054815160609590951b85840152603485018790526054808601919091528151808603909101815260748501808352815191840191909120600160e01b6319045a25029091526078850181815260988601928352865160b88701528651919573__ECDSA_________________________________956319045a259588958a95909360d80192918601918190849084905b838110156119175781810151838201526020016118ff565b50505050905090810190601f1680156119445780820380516001836020036101000a031916815260200191505b50935050505060206040518083038186803b15801561196257600080fd5b505af4158015611976573d6000803e3d6000fd5b505050506040513d602081101561198c57600080fd5b50516000546001600160a01b0390811691161480611ab8575060408051600160e01b6319045a25028152600481018381526024820192835284516044830152845173__ECDSA_________________________________936319045a25938693889390929160640190602085019080838360005b83811015611a175781810151838201526020016119ff565b50505050905090810190601f168015611a445780820380516001836020036101000a031916815260200191505b50935050505060206040518083038186803b158015611a6257600080fd5b505af4158015611a76573d6000803e3d6000fd5b505050506040513d6020811015611a8c57600080fd5b50513360009081526005602090815260408083208784529091529020546001600160a01b039081169116145b611b055760408051600160e51b62461bcd0281526020600482015260136024820152600160681b72496e636f7272656374207369676e617475726502604482015290519081900360640190fd5b5050336000818152600660209081526040808320948352938152838220828155600301805460ff191690559181526004825282812080546001019055600790915220429055565b600082820183811015611ba95760408051600160e51b62461bcd02815260206004820152601b60248201527f536166654d6174683a206164646974696f6e206f766572666c6f770000000000604482015290519081900360640190fd5b9392505050565b6000611ba983836040518060400160405280601e81526020017f536166654d6174683a207375627472616374696f6e206f766572666c6f77000081525060008184841115611c7f57604051600160e51b62461bcd0281526004018080602001828103825283818151815260200191508051906020019080838360005b83811015611c44578181015183820152602001611c2c565b50505050905090810190601f168015611c715780820380516001836020036101000a031916815260200191505b509250505060405180910390fd5b50505090039056fe5472616e73616374696f6e20616d6f756e742065786365656473206461696c79206c696d69744e6f7420656e6f7567682074696d6520656c617073656420746f207265636f76657220746f20616e7920616464726573734e6f7420656e6f7567682074696d6520656c617073656420746f207265636f76657220746f206261636b75702061646472657373416d6f756e74206973206c6172676572207468616e2070726f766964656420616c6c6f77616e6365a165627a7a72305820196d93d1f328d4f15ed5d5db3a6b039b4c783ce4af122cff134d2850a5ad67de0029",
  "source": "pragma solidity ^0.5.0;\n\nimport './ECDSA.sol';\nimport \"./FirstERC.sol\";\nimport \"./SafeMath.sol\";\n\ncontract MultisigERC20 {\n    \n    struct TimeLimits {\n        uint256 dailyLimit;\n        uint256 spent;\n        uint256 timeStart;\n        bool set;\n    }    \n        \n    address private owner;\n    FirstERC public ERC20Interface; // required to communicate with tokens complying to ERC20 standard \n    mapping(bytes32 => address) public tokens; // mapping of tokens suppoted by the smart contract \n    mapping(address => mapping(bytes32 => uint256)) public tokenBalances; // mapping of token balances for every user    \n    mapping(address => uint256) public transactionNonces; // amount of transactions for every user in this smart contract\n    mapping(address => mapping(bytes32 => address)) public safetyKeys; // make private when tested\n    mapping(address => mapping(bytes32 => TimeLimits)) public limits; \n    mapping(address => uint256) private lastAppearance; // Private to make it harder for malicious users.\n    \n    modifier onlyOwner { \n      require(msg.sender == owner);\n      _;\n    }\n    \n    constructor() public {\n        owner = msg.sender;\n    }\n    \n    // Used to add support for new tokens\n    function addNewToken (bytes32 symbol_, address address_) \n        public \n        onlyOwner \n        returns (bool) {  \n        tokens[symbol_] = address_;  \n      \n        return true;  \n    }  \n      \n    // Removing tokens not supported by dapp\n    function removeToken(bytes32 symbol_) \n        public\n        onlyOwner \n        returns (bool) {  \n      require(tokens[symbol_] != address(0), \"Can't remove 0 token\");  \n      \n      delete(tokens[symbol_]);  \n      \n      return true;  \n    }  \n    \n    function setDailyLimit(bytes32 symbol_, uint256 amount_, bytes memory signature_) public {\n        bytes32 message = keccak256(abi.encodePacked(msg.sender, symbol_, amount_, transactionNonces[msg.sender]));\n        require(owner == ECDSA.recover(message, signature_) || safetyKeys[msg.sender][symbol_] == ECDSA.recover(message, signature_), \"Incorrect signature\"); \n        limits[msg.sender][symbol_].dailyLimit = amount_;\n        limits[msg.sender][symbol_].set = true;\n        transactionNonces[msg.sender]++;\n        lastAppearance[msg.sender] = block.timestamp; // Updating last time an action was taken by the user \n    }\n    \n    function withdrawLimit(bytes32 symbol_, bytes memory signature_) public {\n        bytes32 message = keccak256(abi.encodePacked(msg.sender, symbol_, transactionNonces[msg.sender]));\n        require(owner == ECDSA.recover(message, signature_) || safetyKeys[msg.sender][symbol_] == ECDSA.recover(message, signature_), \"Incorrect signature\"); \n        limits[msg.sender][symbol_].dailyLimit = 0;\n        limits[msg.sender][symbol_].set = false;\n        transactionNonces[msg.sender]++;\n        lastAppearance[msg.sender] = block.timestamp; // Updating last time an action was taken by the user \n    }\n     \n    function depositFunds_xur(bytes32 symbol_, uint256 amount_) public returns (bool) {\n        require(tokens[symbol_] != address(0), \"Token not registered\");  \n          \n        address contract_ = tokens[symbol_];  \n        address from_ = msg.sender;  \n         \n        ERC20Interface = FirstERC(contract_);  \n        \n        require(amount_ <= ERC20Interface.allowance(from_, address(this)), \"Amount is larger than provided allowance\");\n\n        ERC20Interface.transferFrom(from_, address(this), amount_);  \n        \n        tokenBalances[from_][symbol_] = SafeMath.add(tokenBalances[from_][symbol_], amount_);\n        lastAppearance[msg.sender] = block.timestamp;\n        return true;\n    }\n    \n    function depositFunds(address safetyKey_, bytes32 symbol_, uint256 amount_) public returns (bool) {\n        require(tokenBalances[msg.sender][symbol_] == 0, \"Balance is not zero\"); // Registration allowed if there is no token balance for the user\n        require(tokens[symbol_] != address(0), \"Token not registered\");   \n          \n        address contract_ = tokens[symbol_];  \n        address from_ = msg.sender;  \n         \n        ERC20Interface = FirstERC(contract_);  \n        \n        require(amount_ <= ERC20Interface.allowance(from_, address(this)), \"Amount is larger than provided allowance\");\n\n        ERC20Interface.transferFrom(from_, address(this), amount_);  \n        \n        tokenBalances[from_][symbol_] = SafeMath.add(tokenBalances[from_][symbol_], amount_);\n        safetyKeys[msg.sender][symbol_] = safetyKey_; // Registering backup key\n        lastAppearance[msg.sender] = block.timestamp;\n        return true;\n    }\n     \n    \n    function verifyTransaction__ef\n        (\n        address to,\n        uint256 amount, \n        bytes memory signature,\n        bytes32 symbol_\n        ) \n        public \n        {\n            address from = msg.sender;\n            require(tokenBalances[from][symbol_] >= amount, \"Not enough balance\"); \n            bytes32 message = keccak256(abi.encodePacked(from, to, amount, transactionNonces[from], symbol_));\n            require(owner == ECDSA.recover(message, signature) || safetyKeys[from][symbol_] == ECDSA.recover(message, signature), \"Incorrect signature\"); // Check if the transaction was signed by the owner or safe key\n            if (limits[from][symbol_].set == true) {\n                if (block.timestamp > limits[from][symbol_].timeStart + 86400) {\n                    require(amount <= limits[from][symbol_].dailyLimit, \"Transaction amount exceeds daily limit\");\n                    limits[from][symbol_].timeStart = block.timestamp;\n                } else {\n                    require(SafeMath.add(limits[from][symbol_].spent, amount) <= limits[from][symbol_].dailyLimit, \"Transaction amount exceeds daily limit\");\n                }\n                limits[from][symbol_].spent = SafeMath.add(limits[from][symbol_].spent, amount);\n            }\n            address contract_ = tokens[symbol_];  \n\n            ERC20Interface = FirstERC(contract_);\n            tokenBalances[from][symbol_] = SafeMath.sub(tokenBalances[from][symbol_] ,amount);\n            lastAppearance[msg.sender] = block.timestamp; // Updating last time an action was taken by the user \n            transactionNonces[from]++;\n            ERC20Interface.transfer(to, amount);\n        }\n    \n    function recoverFundsToSafeAddress(address from_, address to_, bytes32 symbol_, uint256 amount_) public {\n        require(block.timestamp > lastAppearance[from_] + 120, \"Not enough time elapsed to recover to backup address\"); //Testing that after two minutes funds can be sent to safe address\n        require(tokenBalances[from_][symbol_] >= amount_, \"Not enough balance\");\n        require(safetyKeys[from_][symbol_] == to_, \"Address is not correct\");\n        address contract_ = tokens[symbol_];  \n        ERC20Interface = FirstERC(contract_);\n        tokenBalances[from_][symbol_] = SafeMath.sub(tokenBalances[from_][symbol_] ,amount_);\n        ERC20Interface.transfer(to_, amount_);\n    }\n    \n    function recoverFunds(address from_, address to_, bytes32 symbol_, uint256 amount_) public {\n        require(block.timestamp > lastAppearance[from_] + 300, \"Not enough time elapsed to recover to any address\"); //Testing that after five minutes funds can be sent to anyone\n        require(tokenBalances[from_][symbol_] >= amount_, \"Not enough balance\");\n        address contract_ = tokens[symbol_];  \n        ERC20Interface = FirstERC(contract_);\n        tokenBalances[from_][symbol_] = SafeMath.sub(tokenBalances[from_][symbol_] ,amount_);\n        ERC20Interface.transfer(to_, amount_);\n    }\n}",
  "sourcePath": "/Users/Raid/Mastering_Ethereum/DevelopingFirstDapp/Safety Wallet/SafeWalletFix/contracts/contracts/MultisigERC20.sol",
  "compiler": {
    "name": "solc",
    "version": "0.5.8+commit.23d335f2.Emscripten.clang"
  },
  "schemaVersion": "3.0.11",
  "updatedAt": "2019-10-17T11:57:40.318Z",
  "devdoc": {
    "methods": {}
  },
  "userdoc": {
    "methods": {}
  }
}